:100000000C942A000C9447000C9447000C94470071
:100010000C9447000C9447000C9447000C94470044
:100020000C9447000C9494020C9447000C944700E5
:100030000C9447000C9447000C9447000C94470024
:100040000C9447000C9447000C9447000C94470014
:100050000C94470011241FBECFE5D8E0DEBFCDBF12
:1000600010E0A0E6B0E0E6ECF7E002C005900D92EB
:10007000A838B107D9F720E0A8E8B0E001C01D9288
:10008000A239B207E1F70E9449000C94E1030C94F5
:1000900000000E94C9010E9417020E9434010E94C0
:1000A00042022FE38DE093E0215080409040E1F741
:1000B00000C000000E944B0285EA9EE00197F1F724
:1000C00000C0000080918A0090918B00A0918C006C
:1000D000B0918D004097A105B10524F00E94D60192
:1000E0000E94840180918A0090918B00A0918C00E5
:1000F000B0918D000F97A105B105E4F60E940A02A8
:100100000E94C0019FE926E881E091502040804094
:10011000E1F700C000000E9435029FE92BEB8DE063
:10012000915020408040E1F700C000000E944B0247
:1001300085EA9EE00197F1F700C0000080918A00F7
:1001400090918B00A0918C00B0918D008031910531
:10015000A105B105DCF00E9428029FE92BEB8DE0A0
:10016000915020408040E1F700C000000E941B0237
:100170000E94FD010E94A2019FE92AE48BE09150B8
:1001800020408040E1F700C0000094CF0F97A10508
:10019000B1050CF08FCF0E9428029FE92BEB8DE078
:1001A000915020408040E1F700C000000E944B02C7
:1001B00085EA9EE00197F1F700C0000080918A0077
:1001C00090918B00A0918C00B0918D008F309105A3
:1001D000A105B10584F40E941B020E94E3010E9464
:1001E000B1019FEF28EF85E1915020408040E1F779
:1001F00000C000005FCF4097A105B1050CF45ACFB5
:100200000E941B020E94F0010E9493019FE92AE4D0
:100210008BE0915020408040E1F700C000004ACFC1
:1002200088BB85B38C7F85BB85B3846085BB0000AC
:1002300085B38B7F85BB8DEE92E00197F1F700C00F
:100240000000089588BB85B38D7F85BB85B385602D
:1002500085BB000085B38B7F85BB89EF90E001975C
:10026000F1F700C00000089584B3876084BB8FEF6E
:1002700087BB87E893E10197F1F700C0000088E3AE
:100280000E9410018CE00E94100186E00E94100183
:1002900081E00E94100180E80E94100108950F93F0
:1002A0001F93CF93DF938C01C0E0D0E003C00E9486
:1002B00022012196F801EC0FFD1F80818111F7CFFB
:1002C000DF91CF911F910F910895CF93DF93EA01B2
:1002D000813031F4862F8F7080680E94100107C032
:1002E000823029F4862F8F70806C0E941001CE011D
:1002F0000E944F01DF91CF91089581E00E9410018B
:1003000080E80E94100108950E947D0140E650E0BF
:1003100060E081E00E94650147E650E065E082E030
:100320000E94650108950E947D0140E650E060E072
:1003300081E00E9465014FE650E065E082E00E94A6
:10034000650108950E947D0140E650E060E081E093
:100350000E94650145E750E065E082E00E9465018A
:1003600008950E947D0140E650E060E081E00E9437
:1003700065014AE750E065E082E00E94650108956A
:100380000E947D0140E850E064E081E00E94650148
:10039000089584B3886084BB84B3806184BB84B3D4
:1003A000806284BB84B3806484BB089585B3886015
:1003B00085BB85B38F7E85BB85B3806285BB85B3E6
:1003C0008F7B85BB089585B3886085BB85B38F7EA1
:1003D00085BB85B38F7D85BB85B3806485BB089560
:1003E00085B3886085BB85B38F7E85BB85B38F7DE4
:1003F00085BB85B3806485BB089585B3877F85BB46
:1004000085B3806185BB85B3806285BB85B38F7BF7
:1004100085BB089585B3877F85BB85B38F7E85BBFC
:1004200085B38F7D85BB85B38F7B85BB089581B3F5
:10043000806881BB089582B3806882BB89E397E0BE
:100440000197F1F700C0000082B38F7782BB089557
:1004500082B3806882BB8FE891E00197F1F700C01A
:10046000000082B38F7782BB089582B3806882BB1D
:1004700088E799E00197F1F700C0000082B38F7719
:1004800082BB089581E08ABB8FEF82BB789484E0C1
:1004900089BF1FBC08958BB381608BBB83E08A95B5
:1004A000F1F700008BB38E7F8BBB1DBC1CBC81E4BD
:1004B0008EBD80E288BF84E088BF08B605FEFDCF10
:1004C0001DBC1CBC81E08EBD80E288BF84E088BF7B
:1004D000109289001092880008B605FEFDCF66B51F
:1004E00077B580E090E060938E0070938F008093EA
:1004F0009000909391000E94550329E23CE349EE5D
:1005000053E40E94AB020E941D0360938A00709323
:100510008B0080938C0090938D008FE493EC019777
:10052000F1F700C0000008951F920F920FB60F92CE
:1005300011248F939F938091880090918900019658
:1005400090938900809388009F918F910F900FBEA8
:100550000F901F9018950E94BF020C94A7030E9451
:10056000A00358F00E94990340F029F45F3F29F05E
:100570000C94900351110C94DB030C9496030E948D
:10058000B80368F39923B1F3552391F3951B550BE9
:10059000BB27AA2762177307840738F09F5F5F4F56
:1005A000220F331F441FAA1FA9F335D00E2E3AF095
:1005B000E0E832D091505040E695001CCAF72BD0AD
:1005C000FE2F29D0660F771F881FBB1F26173707FE
:1005D0004807AB07B0E809F0BB0B802DBF01FF2730
:1005E00093585F4F3AF09E3F510578F00C9490037A
:1005F0000C94DB035F3FE4F3983ED4F38695779544
:100600006795B795F7959F5FC9F7880F911D9695E8
:10061000879597F90895E1E0660F771F881FBB1F44
:10062000621773078407BA0720F0621B730B840BF1
:10063000BA0BEE1F88F7E09508950E942403689492
:10064000B1110C94DB0308950E94C00388F09F57FA
:1006500098F0B92F9927B751B0F0E1F0660F771FE6
:10066000881F991F1AF0BA95C9F714C0B13091F0DC
:100670000E94DA03B1E008950C94DA03672F782F13
:100680008827B85F39F0B93FCCF3869577956795A1
:10069000B395D9F73EF490958095709561957F4F0D
:1006A0008F4F9F4F0895E89409C097FB3EF49095B3
:1006B0008095709561957F4F8F4F9F4F9923A9F03B
:1006C000F92F96E9BB279395F695879577956795CA
:1006D000B795F111F8CFFAF4BB0F11F460FF1BC00E
:1006E0006F5F7F4F8F4F9F4F16C0882311F096E9A1
:1006F00011C0772321F09EE8872F762F05C066234F
:1007000071F096E8862F70E060E02AF09A95660F07
:10071000771F881FDAF7880F9695879597F90895C0
:1007200097F99F6780E870E060E008959FEF80ECA4
:10073000089500240A941616170618060906089547
:1007400000240A9412161306140605060895092EAD
:100750000394000C11F4882352F0BB0F40F4BF2B1C
:1007600011F460FF04C06F5F7F4F8F4F9F4F08955C
:1007700057FD9058440F551F59F05F3F71F0479552
:10078000880F97FB991F61F09F3F79F08795089537
:10079000121613061406551FF2CF4695F1DF08C056
:1007A000161617061806991FF1CF86957105610573
:1007B00008940895E894BB2766277727CB0197F91B
:0607C0000895F894FFCF3C
:1007C6004D4F56494E4700464F52574152440052EC
:1007D60049474854004C45465400585455524E001B
:0807E60053544F5050454400EC
:00000001FF
